:020000040800F2
:100000000050002011190008FD170008031800080F
:10001000091800080F180008151800080000000053
:100020000000000000000000000000001B18000895
:100030002718000800000000331800083F180008C7
:1000400059190008591900085919000859190008C8
:1000500059190008591900085919000859190008B8
:1000600059190008591900085919000859190008A8
:100070005919000859190008591900085919000898
:100080005919000859190008591900085919000888
:100090005919000859190008591900085919000878
:1000A0005919000859190008591900085919000868
:1000B0004D1800085919000859190008611800085E
:1000C000751800085919000859190008591900082D
:1000D0005919000859190008591900085919000838
:1000E0008918000859190008591900080000000073
:1000F0000000000000000000000000000000000000
:0C01000000000000000000005FF808F1A3
:10010C0010B5054C237833B9044B13B10448AFF345
:10011C0000800123237010BD0801002000000000A6
:10012C00A861000808B5034B1BB103490348AFF3A2
:10013C00008008BD000000000C010020A861000830
:10014C0080B586B000AF0021012000F0FAFC134806
:10015C0000F0E2FC124B1A6807F10C031149184627
:10016C0005F098FC07F10C03184600F0D5FC0021B3
:10017C00022000F0E6FC0C4800F0CEFC0B4B1A6899
:10018C003B460849184605F085FC3B46184600F0EE
:10019C00C3FC00BF1837BD4680BD00BFC06100085E
:1001AC002C010020C8610008CC610008300100203F
:1001BC0080B584B000AFF860B9607A60074AFB681C
:1001CC001360074ABB681360064A7B68136000F033
:1001DC003DFC00BF1037BD4680BD00BF04000020B1
:1001EC002C0100203001002080B500AF404B1B6873
:1001FC000A2B70D801A252F823F000BFE3020008CA
:10020C00470200087102000897020008BD020008AE
:10021C00E3020008E3020008E3020008E30200081E
:10022C00E302000835020008324B1B68324A1268A0
:10023C0019460120FFF7BCFF56E0002000F090FBB0
:10024C00012000F0A9FBFFF77BFF2C4B1B68002B58
:10025C0043D12B4B1B682B4A126819460220FFF71F
:10026C00A7FF3AE0002000F07BFB012000F086FBAA
:10027C00224B1B68002B32D11F4B1B681D4A126886
:10028C0019460320FFF794FF29E0002000F084FBBF
:10029C00012000F065FB1A4B1B68002B21D1194B78
:1002AC001B68164A126819460420FFF781FF18E0F4
:1002BC00002000F063FB012000F052FB104B1B6888
:1002CC00002B10D10B4B1B680B4A126819460120EE
:1002DC00FFF76EFF07E000BF06E000BF04E000BFC1
:1002EC0002E000BF00E000BF00F09AFA00BF80BD42
:1002FC000400002008000020100000203001002025
:10030C002C0100200C00002080B500AF1D4B1B6899
:10031C00012B0ED11C4B1B681A461C491C4805F0BE
:10032C00B9FB03469AB24FF4FA731949194805F010
:10033C00EDF8144B1B68022B0ED1174B1B681A4699
:10034C001649134805F0A6FB03469AB24FF4FA730C
:10035C000F49104805F0DAF80A4B1B68032B0ED135
:10036C000F4B1B681A460F49094805F093FB0346CF
:10037C009AB24FF4FA730649064805F0C7F800BF65
:10038C0080BD00BF2801002008000020D4610008B7
:10039C00A8010020600100200C000020E86100088A
:1003AC0010000020FC61000880B500AFA34B1B6857
:1003BC000A2B00F2398101A252F823F0F503000850
:1003CC00110400087F050008C90400083506000860
:1003DC003506000835060008350600083506000805
:1003EC0035060008F5030008944B01221A6000F052
:1003FC002DFBFFF789FF924B5B680121184601F03A
:10040C00B3F818E100F0D6FA022000F0DDFC034648
:10041C00002B11D08B4B1B685A1C8B4B83FB02138C
:10042C005911D317CB1A642101FB03F3D31A854A54
:10043C001360FFF769FFF9E0022000F0E9FC0346C6
:10044C00002B12D07F4B1B6803F163027E4B83FBA6
:10045C0002135911D317CB1A642101FB03F3D31ADE
:10046C00784A1360FFF750FFE0E0012000F0ACFC8D
:10047C000346002B07D0714B03221A6000F0E6FAFA
:10048C00FFF742FFD2E0002000F09EFC0346002B59
:10049C0000F0CC806D4B1B686A4A13606C4B1B6878
:1004AC006C4A13606C4B1B686C4A1360FFF72CFF93
:1004BC00624B03221A6000F0C9FAB7E000F0ACFA04
:1004CC00022000F081FC0346002B11D0634B1B680B
:1004DC005A1C5D4B83FB02135911D317CB1A6421A1
:1004EC0001FB03F3D31A5D4A1360FFF70DFF9FE086
:1004FC00022000F08DFC0346002B12D0574B1B68DA
:10050C0003F16302504B83FB02135911D317CB1A1F
:10051C00642101FB03F3D31A504A1360FFF7F4FE76
:10052C0086E0012000F050FC0346002B07D0434B23
:10053C0002221A6000F08AFAFFF7E6FE78E000204B
:10054C0000F042FC0346002B72D0404B1B683D4A26
:10055C0013603F4B1B683F4A13603F4B1B683F4A7D
:10056C001360FFF7D1FE354B03221A6000F06EFAD0
:10057C005EE000F037FA022000F026FC0346002B68
:10058C0011D0344B1B685A1C2F4B83FB021359118F
:10059C00D317CB1A642101FB03F3D31A2D4A136032
:1005AC00FFF7B2FE46E0022000F032FC0346002BBF
:1005BC0012D0284B1B6803F16302234B83FB0213FD
:1005CC005911D317CB1A642101FB03F3D31A214A17
:1005DC001360FFF799FE2DE0012000F0F5FB0346B8
:1005EC00002B07D0154B01221A6000F02FFAFFF7F1
:1005FC008BFE1FE0002000F0E7FB0346002B19D018
:10060C00124B1B680F4A1360114B1B68114A136085
:10061C00114B1B68114A1360FFF776FE074B032240
:10062C001A6000F013FA05E000BF04E000BF02E01E
:10063C0000BF00E000BF00BF80BD00BF280100204C
:10064C0088000020080000201F85EB5114000020BA
:10065C00180000200C0000201C00002010000020BE
:10066C0080B500AF002000F0D3FB0346002B2CD04C
:10067C00304B1B68022B18D02E4B02221A602E49CD
:10068C002E4805F007FA03469AB24FF4FA732B4939
:10069C002B4804F03BFF2B4B0A221A602A4B0022FA
:1006AC001A602A4B00221A6041E0224B0A221A607F
:1006BC002749224805F0EEF903469AB24FF4FA7333
:1006CC001E491F4804F022FF31E0012000F0A0FB7E
:1006DC000346002B2BD0174B1B68032B18D0154B44
:1006EC0003221A601B49154805F0D4F903469AB247
:1006FC004FF4FA731149124804F008FF134B0A2205
:10070C001A60114B00221A600E4B00221A600EE088
:10071C00084B0A221A600E49084805F0BBF903463B
:10072C009AB24FF4FA730549054804F0EFFE00BF86
:10073C0080BD00BF0000002010620008A80100204E
:10074C00600100202401002004000020280100206A
:10075C002C6200084462000880B500AF254B1B6872
:10076C000A2B06D00A2B41DC012B39D0032B3AD0B3
:10077C003CE0214B1A68214B1B681A44204B1B6828
:10078C009A4218D01B4B04221A601E491E4805F0D1
:10079C0081F903469AB24FF4FA731B491B4804F0D3
:1007AC00B5FE1B4B00221A601A4B00221A601A4B22
:1007BC0000221A6011E00F4B01221A60144B0A221E
:1007CC001A60144B00221A60134B00221A60134B50
:1007DC001B680021184600F0C7FE00F0B5F806E0D3
:1007EC00FFF702FD03E0FFF7DFFD00E000BF00BFF5
:1007FC0080BD00BF000000200C0000201000002075
:10080C000800002060620008A801002060010020A0
:10081C000400002024010020280100208800002072
:10082C0080B500AF204B1B68012B3BD11F4B1B68C5
:10083C00012B37D11E4B1B68002B04DD1C4B1B6896
:10084C00013B1B4A13601B4B1B68002B04DD194B2F
:10085C001B68013B174A1360154B1B681A46164957
:10086C00164805F017F903469AB24FF4FA73134978
:10087C00134804F04BFE0F4B1B681A4611490F48E6
:10088C0005F008F903469AB24FF4FA730B490C4879
:10089C0004F03CFEFFF754FC0B4B1B680021184680
:1008AC0000F062FE00BF80BD44010020000000206B
:1008BC002C0100203001002070620008A8010020EB
:1008CC0060010020846200088800002080B582B09E
:1008DC0000AF3B600346FB710B46BB7113467B714B
:1008EC003B68002B12D1FB791A460221154801F006
:1008FC00C0FBBB791A461021124801F0BAFB7B7978
:10090C001A4640210F4801F0B4FB16E03B68012B5E
:10091C0013D1FB791A4680210A4801F0AAFBBB7956
:10092C001A464FF48071074801F0A3FB7B791A46F5
:10093C004FF40071034801F09CFB00BF0837BD4623
:10094C0080BD00BF0008014080B500AF012240F21D
:10095C00D231024801F08DFB00BF80BD0008014080
:10096C0080B582B000AF78607B6801220121002045
:10097C00FFF7ACFF00BF0837BD4680BD80B582B025
:10098C0000AF78607B68012200210120FFF79EFFF9
:10099C0000BF0837BD4680BD80B582B000AF78601F
:1009AC007B68002201210120FFF790FF00BF083770
:1009BC00BD4680BD80B500AF074B5B68012B09D1EC
:1009CC008221064801F06DFB054B5B68012118463E
:1009DC0000F0CAFD00BF80BD4401002000080140AA
:1009EC008800002080B500AF084B5B68012B0AD152
:1009FC004FF48871064801F054FB064B5B680121EB
:100A0C00184600F0B1FD00BF80BD00BF44010020BE
:100A1C00000801408800002080B500AF084B5B68DF
:100A2C00012B0AD14FF41071064801F03AFB064B2A
:100A3C005B680121184600F097FD00BF80BD00BF28
:100A4C0044010020000801408800002080B500AF60
:100A5C00FFF77AFF00BF80BD80B586B002AF0346BA
:100A6C00FB71FB7923F00F03FB73FB791B01BB7349
:100A7C00FB7B43F00C03DBB23B72FB7B43F00803C4
:100A8C00DBB27B72BB7B43F00C03DBB2BB72BB7B78
:100A9C0043F00803DBB2FB7207F1080264230093F6
:100AAC0004234221034801F08FFC00BF1037BD46E0
:100ABC0080BD00BFDC01002080B586B002AF0346CC
:100ACC00FB71FB7923F00F03FB73FB791B01BB73E9
:100ADC00FB7B43F00D03DBB23B72FB7B43F0090362
:100AEC00DBB27B72BB7B43F00D03DBB2BB72BB7B17
:100AFC0043F00903DBB2FB7207F108026423009395
:100B0C0004234221034801F05FFC00BF1037BD46AF
:100B1C0080BD00BFDC01002080B582B000AF7860E2
:100B2C0006E07B685A1C7A601B781846FFF7C4FFF6
:100B3C007B681B78002BF4D100BF00BF0837BD4683
:100B4C0080BD80B584B000AF786039607B68012BC4
:100B5C0008D17B68DAB23B68DBB21344DBB27F337B
:100B6C00FB7308E03B68DBB24033DBB25BB263F093
:100B7C007F035BB2FB73FB7B1846FFF76DFF00BF77
:100B8C001037BD4680BD000080B582B000AF002399
:100B9C007B6009E189497A681346DB009B1A9B004C
:100BAC000B440433196885487A681346DB009B1A9A
:100BBC009B000344196081497A681346DB009B1A39
:100BCC009B000B44083319687C487A681346DB0099
:100BDC009B1A9B00034404331960794A7B6852F8D2
:100BEC00232078497B6831F813301946104601F000
:100BFC0029FA0346184671497A681346DB009B1A9A
:100C0C009B000B44083318606C497A681346DB0070
:100C1C009B1A9B000B44196868487A681346DB00E2
:100C2C009B1A9B00034404331B68994240F0B98023
:100C3C0062497A681346DB009B1A9B000B44043311
:100C4C0019685E487A681346DB009B1A9B000344C4
:100C5C0008331B68994240F0A48058497A681346BF
:100C6C00DB009B1A9B000B440C33196853487A68C1
:100C7C001346DB009B1A9B00034408331B68994204
:100C8C0052D04E497A681346DB009B1A9B000B44EA
:100C9C000833196849487A681346DB009B1A9B0095
:100CAC0003440C33196045497A681346DB009B1AE0
:100CBC009B000B4408331B68002B14D13F497A6806
:100CCC001346DB009B1A9B000B44103301221A6065
:100CDC003A497A681346DB009B1A9B000B44183385
:100CEC0064221A605DE035497A681346DB009B1A72
:100CFC009B000B4408331B68012B52D12F497A6897
:100D0C001346DB009B1A9B000B4410331B68012B12
:100D1C0047D12A497A681346DB009B1A9B000B4487
:100D2C00103302221A603CE024497A681346DB0037
:100D3C009B1A9B000B4408331B68002B31D11F49B5
:100D4C007A681346DB009B1A9B000B4418331B6814
:100D5C00591E1A487A681346DB009B1A9B00034401
:100D6C001833196015497A681346DB009B1A9B00EF
:100D7C000B4418331B68002B13D110497A681346A7
:100D8C00DB009B1A9B000B44143301221A600B49A5
:100D9C007A681346DB009B1A9B000B44103300222D
:100DAC001A607B6801337B607B68022B7FF7F2AEA5
:100DBC0000BF00BF0837BD4680BD00BF200000202B
:100DCC00740000208000002080B483B000AF7860F5
:100DDC000E497A681346DB009B1A9B000B441033B8
:100DEC001B68022B0BD109497A681346DB009B1A4E
:100DFC009B000B44103300221A60012300E00023F7
:100E0C0018460C37BD4680BC704700BF2000002040
:100E1C0080B483B000AF78600E497A681346DB006B
:100E2C009B1A9B000B4414331B68012B0BD10949F3
:100E3C007A681346DB009B1A9B000B441433002288
:100E4C001A60012300E0002318460C37BD4680BC15
:100E5C00704700BF2000002080B500AF00F078FD87
:100E6C0000F03EF800F022F900F0F6F800F07AF805
:100E7C0000F0A6F8134803F057FF134B1B68002132
:100E8C00184600F071FB00F0CBF9012200210F484D
:100E9C0000F0E0F9012200210D4800F0DBF90122FD
:100EAC0000210C4800F0D6F9012200210A4800F07C
:100EBC00D1F901220021094800F0CCF900F026FB01
:100ECC00FCE700BF30020020880000206507000806
:100EDC002D0800086D060008B5150008950B0008D4
:100EEC0080B590B000AF07F11803282200211846F6
:100EFC0004F012FD3B1D00221A605A609A60DA6001
:100F0C001A610223BB610123BB621023FB62022323
:100F1C007B630023BB634FF46013FB6307F118037F
:100F2C00184603F0A3FA0346002B01D000F048F951
:100F3C000F237B600223BB600023FB604FF48063B4
:100F4C003B6100237B613B1D0221184603F00EFD23
:100F5C000346002B01D000F033F900BF4037BD46EB
:100F6C0080BD000080B500AF124B134A1A60114BC4
:100F7C00124A5A600F4B00229A600E4B0022DA6024
:100F8C000C4B4FF480421A610A4B00225A61094BF8
:100F9C0000229A61074B0022DA61064B00221A628A
:100FAC00044801F0B9F80346002B01D000F008F911
:100FBC0000BF80BDDC01002000540040A086010071
:100FCC0080B586B000AF07F1080300221A605A60A2
:100FDC009A60DA603B4600221A605A601D4B4FF053
:100FEC0080421A601B4B41F63F725A60194B00222B
:100FFC009A60184B0922DA60164B00221A61154BC5
:10100C0000229A61134803F03FFE0346002B01D0E7
:10101C0000F0D6F84FF48053BB6007F10803194673
:10102C000C4803F0C3FF0346002B01D000F0C8F8B6
:10103C0000233B6000237B603B461946054804F0C7
:10104C00A5F90346002B01D000F0BAF800BF183701
:10105C00BD4680BD3002002080B500AF114B124A56
:10106C001A60104B4FF416525A600E4B00229A60C5
:10107C000C4B0022DA600B4B00221A61094B0C223C
:10108C005A61084B00229A61064B0022DA6105482E
:10109C0004F0ECF90346002B01D000F091F800BFEE
:1010AC0080BD00BF600100200044004080B588B0C6
:1010BC0000AF07F1100300221A605A609A60DA60E0
:1010CC00354B9B69344A43F010039361324B9B6957
:1010DC0003F01003FB60FB682F4B9B692E4A43F017
:1010EC00200393612C4B9B6903F02003BB60BB680E
:1010FC00294B9B69284A43F004039361264B9B6957
:10110C0003F004037B607B68234B9B69224A43F00A
:10111C0008039361204B9B6903F008033B603B6819
:10112C00002240F2F2311D4800F0A3FF4FF40053AF
:10113C003B611B4B7B610023BB6107F1100319461C
:10114C00184800F0FBFD40F2F2333B6101237B6158
:10115C000023BB610223FB6107F1100319460F4802
:10116C0000F0ECFD4FF498633B6100237B6101239D
:10117C00BB6107F1100319460B4800F0DFFD00229C
:10118C000021282000F01DFD282000F036FD00BFB6
:10119C002037BD4680BD00BF001002400008014052
:1011AC000000111000100140000C014080B582B00D
:1011BC0000AF786000F08EF900BF0837BD4680BDE7
:1011CC0080B400AF72B600BFFEE780B586B000AF4A
:1011DC00F860B9607A603B60102004F095FB034620
:1011EC007B617B69BA681A607B697A685A607B6933
:1011FC003A689A60FB68002B03D0FB681B68002BD5
:10120C0003D17B697A69DA6004E0FB681B68DA68F1
:10121C007B69DA607B6918461837BD4680BD0000D3
:10122C0080B500AF0C2004F06FFB03461A46084B48
:10123C001A60074B1B6800221A60054B1B680022C2
:10124C005A60034B1B6800229A6000BF80BD00BF30
:10125C007802002090B58BB000AFF860B9607A606E
:10126C006E4B1B681B68002B0FD16C4B1C687B688A
:10127C00BA68F9680020FFF7A8FF03462360674BA4
:10128C001B685A6801325A60C4E0644B1B681B68C7
:10129C007B6100237B620023BB6100233B62B1E0D6
:1012AC007B69DB685B687A6A13447B627A6ABB6829
:1012BC009A4265D97B69DB685A687B6AD31ABA682B
:1012CC001344BB617B69DB68796ABA688A1A5A6015
:1012DC00524B1B689B68002B0FD17C6907F11400E3
:1012EC007B68BA69F968FFF770FF0346E3604B4B04
:1012FC001B685A6801325A608CE0484B1B681B68AB
:10130C00FA681A60454B1B681B68BA695A60434BF4
:10131C001B681B687A689A607B69DB68FB6102E07A
:10132C00FB69DB68FB61FB69DA683C4B1B681B687B
:10133C009A42F5D1394B1B681A687B699A4204D1E1
:10134C00364B1B68FA691A6014E0344B1B681B6837
:10135C00DA68FB69DA607A69304B1B681B68D26803
:10136C00DA602E4B1A687B691268DA602B4B1B68AB
:10137C00FA691A60294B1B689A68013A9A6049E02D
:10138C007B69DB681B68002B13D17B69DB68FA680F
:10139C001A607B69DB68B9687A6A8A1A5A607B6959
:1013AC00DB687A689A601D4B1B689A68013A9A60F0
:1013BC0030E07B69DA68194B1B681B689A421BD1B9
:1013CC00164B1B681846BA687B6AD21A134B1B68FB
:1013DC001C687B68F968FFF7F8FE0346E3600F4B67
:1013EC001B681A680D4B1B68D2681A600B4B1B6884
:1013FC005A6801325A600DE07B69DB687B613B6A9D
:10140C0001333B62054B1B685B683A6A9A42FFF6F4
:10141C0047AFFFE700BF2C37BD4690BD78020020D8
:10142C0080B485B000AF78607B681B68DB68FB60BC
:10143C00274B1B681B68FA689A4208D0FB68DB686C
:10144C005968FB685A68FB68DB680A445A60FB6899
:10145C0000221A60FB6800225A60FB6800229A6026
:10146C007B681A681A4B1B681B689A4207D1184B89
:10147C001B681A68164B1B68D2681A601EE0FB6862
:10148C00DB681B68002B19D0114B1B681B68FA68B2
:10149C009A4213D07B681B68FA68D268DA600C4BEE
:1014AC001B681B68DA68FB68DA60094B1B681B68F1
:1014BC00FA68DA60064B1B68FA681A60044B1B6802
:1014CC009A6801329A6000BF1437BD4680BC7047E1
:1014DC007802002080B400AF0B4B1B681B68002BFC
:1014EC000DD0094B1B681B68DB685B68002B06D0B2
:1014FC00054B1B681B68DB685A68013A5A6000BFD1
:10150C00BD4680BC704700BF7802002090B585B006
:10151C0000AF1BE0134B1B681B68DB681B6898470C
:10152C00104B1B681B68DB683C460FCB84E80F0034
:10153C000C4B1B681846FFF773FFBB68002B05D0DC
:10154C003B68B968BA681846FFF784FE054B1B6800
:10155C001B68DB685B68002BDCD000BF00BF143756
:10156C00BD4690BD7802002080B483B000AF786097
:10157C0039607B68094A82FB03129210DB17D21A7E
:10158C0007493B6841F82320064A3B68002142F892
:10159C00231000BF0C37BD4680BC7047676666667B
:1015AC00340100204401002080B483B000AF00233C
:1015BC007B601CE0124A7B6852F82330002B13DD51
:1015CC000F4A7B6852F823305A1E0D497B6841F84C
:1015DC0023200B4A7B6852F82330002B04DC094A89
:1015EC007B68012142F823107B6801337B607B68A8
:1015FC00032BDFDD00BF00BF0C37BD4680BC70473E
:10160C00340100204401002080B485B000AF154B9C
:10161C009B69144A43F001039361124B9B6903F0DD
:10162C000103BB60BB680F4BDB690E4A43F0805370
:10163C00D3610C4BDB6903F080537B607B680A4BF6
:10164C005B68FB60FB6823F0E063FB60FB6843F0C6
:10165C000073FB60044AFB68536000BF1437BD463F
:10166C0080BC7047001002400000014080B58AB079
:10167C0000AF786007F1140300221A605A609A6078
:10168C00DA607B681B68254A934242D1244B9B69E4
:10169C00234A43F008039361214B9B6903F0080331
:1016AC003B613B694FF440737B611223BB610323A5
:1016BC003B6207F1140319461A4800F03FFB1A4B22
:1016CC005B687B627B6A43F0E0637B627B6A43F01E
:1016DC0002037B62144A7B6A5360114BDB69104A2C
:1016EC0043F40013D3610E4BDB6903F40013FB606E
:1016FC00FB68002200211F2000F063FA1F2000F07D
:10170C007CFA00220021202000F05BFA202000F05F
:10171C0074FA00BF2837BD4680BD00BF005400409E
:10172C0000100240000C01400000014080B584B064
:10173C0000AF78607B681B68B3F1804F13D10C4B02
:10174C00DB690B4A43F00103D361094BDB6903F0FE
:10175C000103FB60FB68002200211C2000F031FA21
:10176C001C2000F04AFA00BF1037BD4680BD00BFF8
:10177C000010024080B588B000AF786007F110030C
:10178C0000221A605A609A60DA607B681B68154AFE
:10179C00934223D1144BDB69134A43F40033D361D6
:1017AC00114BDB6903F40033FB60FB680E4B9B6948
:1017BC000D4A43F0040393610B4B9B6903F0040344
:1017CC00BB60BB680C233B6102237B610223FB6182
:1017DC0007F110031946054800F0B0FA00BF203796
:1017EC00BD4680BD0044004000100240000801408E
:1017FC0080B400AFFEE780B400AFFEE780B400AF6A
:10180C00FEE780B400AFFEE780B400AFFEE780B423
:10181C0000AF00BFBD4680BC704780B400AF00BFB6
:10182C00BD4680BC704780B400AF00BFBD4680BCD5
:10183C00704780B500AF00F0D1F800BF80BD00004C
:10184C0080B500AF024803F0C1FA00BF80BD00BFF5
:10185C003002002080B500AF024800F0B3FE00BF9C
:10186C0080BD00BFDC01002080B500AF024801F054
:10187C001AF800BF80BD00BFDC01002080B500AFAE
:10188C004FF4005000F026FC00BF80BD80B586B040
:10189C0000AF7860144A154BD31A7B617B693B61AE
:1018AC00134B1B68002B02D1114B124A1A60104BC0
:1018BC001A687B6813443A699A4207D203F0FAFF1C
:1018CC0003460C221A604FF0FF3309E0084B1B68EB
:1018DC00FB60074B1A687B681344054A1360FB686E
:1018EC0018461837BD4680BD00500020000400008B
:1018FC00540100209002002080B400AF00BFBD4610
:10190C0080BC7047FFF7F8FF0B480C490C4A0023CA
:10191C0002E0D458C4500433C4188C42F9D3094A99
:10192C00094C002301E013600432A242FBD303F004
:10193C00C7FFFFF791FA7047000000200801002054
:10194C00006300080801002090020020FEE7000060
:10195C0080B500AF084B1B68074A43F010031360B7
:10196C00032000F023F9002000F008F8FFF74CFEEC
:10197C000023184680BD00BF0020024080B582B015
:10198C0000AF7860124B1A68124B1B7819464FF453
:10199C007A73B3FBF1F3B2FBF3F3184600F03BF9A7
:1019AC000346002B01D001230EE07B680F2B0AD8D5
:1019BC00002279684FF0FF3000F003F9064A7B688B
:1019CC001360002300E0012318460837BD4680BD94
:1019DC0098000020A00000209C00002080B400AFE4
:1019EC00054B1B781A46054B1B681344034A1360BE
:1019FC0000BFBD4680BC7047A00000207C020020C8
:101A0C0080B400AF024B1B681846BD4680BC7047C3
:101A1C007C02002080B485B000AF78607B6803F056
:101A2C000703FB600C4BDB68BB60BA684FF6FF0327
:101A3C001340BB60FB681A02BB68134343F0BF63DF
:101A4C0043F40033BB60044ABB68D36000BF143757
:101A5C00BD4680BC704700BF00ED00E080B400AF15
:101A6C00044BDB681B0A03F007031846BD4680BC19
:101A7C00704700BF00ED00E080B483B000AF0346B8
:101A8C00FB7197F90730002B0BDBFB7903F01F027E
:101A9C00064997F907305B09012000FA02F241F878
:101AAC00232000BF0C37BD4680BC704700E100E02E
:101ABC0080B483B000AF03463960FB7197F90730EF
:101ACC00002B0ADB3B68DAB20C4997F9073012019C
:101ADC00D2B20B4483F800230AE03B68DAB208491F
:101AEC00FB7903F00F03043B1201D2B20B441A76BC
:101AFC0000BF0C37BD4680BC704700BF00E100E062
:101B0C0000ED00E080B489B000AFF860B9607A6095
:101B1C00FB6803F00703FB61FB69C3F10703042BAC
:101B2C0028BF0423BB61FB690433062B02D9FB6974
:101B3C00033B00E000237B614FF0FF32BB6902FAEC
:101B4C0003F3DA43BB681A407B699A404FF0FF31CC
:101B5C007B6901FA03F3D9437B680B4013431846A6
:101B6C002437BD4680BC704780B582B000AF78602A
:101B7C007B68013BB3F1807F01D301230FE00A4A5C
:101B8C007B68013B53600F214FF0FF30FFF790FF54
:101B9C00054B00229A60044B07221A60002318465A
:101BAC000837BD4680BD00BF10E000E080B582B0B4
:101BBC0000AF78607868FFF72DFF00BF0837BD468F
:101BCC0080BD80B586B000AF0346B9607A60FB7308
:101BDC0000237B61FFF742FF78617A68B968786906
:101BEC00FFF790FF024697F90F3011461846FFF7A2
:101BFC005FFF00BF1837BD4680BD80B582B000AF17
:101C0C000346FB7197F907301846FFF735FF00BF05
:101C1C000837BD4680BD80B582B000AF786078686B
:101C2C00FFF7A2FF034618460837BD4680BD0000EB
:101C3C0080B584B000AF78600023FB737B6893F8A9
:101C4C002130DBB2022B05D07B6804229A6301237E
:101C5C00FB7351E07B681B681A687B681B6822F079
:101C6C000E021A607B681B681A687B681B6822F07E
:101C7C0001021A607B681B68224A934229D07B6858
:101C8C001B68214A934222D07B681B681F4A9342EF
:101C9C001AD07B681B681E4A934212D07B681B6863
:101CAC001C4A93420AD07B681B681B4A934202D1A0
:101CBC004FF480130EE04FF080730BE04FF4803341
:101CCC0008E04FF4805305E04FF4807302E01023DA
:101CDC0000E00123114A53607B68012283F8212024
:101CEC007B68002283F820207B685B6B002B03D081
:101CFC007B685B6B78689847FB7B18461037BD4652
:101D0C0080BD00BF080002401C00024030000240B1
:101D1C0044000240580002406C00024000000240A7
:101D2C0080B483B000AF78607B6893F82130DBB26D
:101D3C0018460C37BD4680BC7047000080B48BB091
:101D4C0000AF7860396000237B6200233B6269E15D
:101D5C0001227B6A02FA03F3FB613B681B68FA6998
:101D6C001340BB61BA69FB699A4240F058813B68E9
:101D7C005B689A4A93425ED0984A934275D8984AC7
:101D8C00934258D0964A93426FD8964A934252D077
:101D9C00944A934269D8944A93424CD0924A9342C3
:101DAC0063D8924A934246D0904A93425DD8122B04
:101DBC002AD8122B59D801A252F823F0431E00083E
:101DCC001D1E00082F1E0008711E0008771E00083B
:101DDC00771E0008771E0008771E0008771E000883
:101DEC00771E0008771E0008771E0008771E000873
:101DFC00771E0008771E0008771E0008771E000863
:101E0C00251E0008391E0008794A934213D02CE095
:101E1C003B68DB683B6229E03B68DB6804333B6270
:101E2C0024E03B68DB6808333B621FE03B68DB68FF
:101E3C000C333B621AE03B689B68002B02D10423F5
:101E4C003B6213E03B689B68012B05D108233B6286
:101E5C007B68FA691A6109E008233B627B68FA69BE
:101E6C005A6103E000233B6200E000BFBB69FF2B1B
:101E7C0001D87B6801E07B6804337B61BB69FF2B75
:101E8C0002D87B6A9B0002E07B6A083B9B003B61AB
:101E9C007B691A680F213B6901FA03F3DB431A4093
:101EAC00396A3B6901FA03F31A437B691A603B6890
:101EBC005B6803F08053002B00F0B1804D4B9B69A5
:101ECC004C4A43F0010393614A4B9B6903F00103B5
:101EDC00BB60BB68484A7B6A9B08023352F82330CC
:101EEC00FB607B6A03F003039B000F2202FA03F3EF
:101EFC00DB43FA681340FB607B68404A934213D083
:101F0C007B683F4A93420DD07B683E4A934207D090
:101F1C007B683D4A934201D1032306E0042304E08D
:101F2C00022302E0012300E000237A6A02F003029C
:101F3C0092009340FA681343FB602F497B6A9B081D
:101F4C000233FA6841F823203B685B6803F4801382
:101F5C00002B06D02D4B9A682C49BB6913438B6020
:101F6C0006E02A4B9A68BB69DB43284913408B6017
:101F7C003B685B6803F40013002B06D0234BDA6834
:101F8C002249BB691343CB6006E0204BDA68BB697E
:101F9C00DB431E491340CB603B685B6803F40033A2
:101FAC00002B06D0194B5A681849BB6913434B6078
:101FBC0006E0164B5A68BB69DB43144913404B606F
:101FCC003B685B6803F48033002B21D00F4B1A68FD
:101FDC000E49BB6913430B6021E000BF00003210B7
:101FEC00000031100000221000002110000012101F
:101FFC0000001110001002400000014000080140D8
:10200C00000C01400010014000140140000401408C
:10201C000B4B1A68BB69DB43094913400B607B6AA5
:10202C0001337B623B681A687B6A22FA03F3002B4C
:10203C007FF48EAE00BF00BF2C37BD4680BC70470E
:10204C000004014080B485B000AF78600B467B8003
:10205C007B689A687B881340002B02D00123FB73AA
:10206C0001E00023FB73FB7B18461437BD4680BC94
:10207C00704780B483B000AF78600B467B8013460A
:10208C007B707B78002B03D07A887B681A6103E025
:10209C007B881A047B681A6100BF0C37BD4680BC74
:1020AC00704780B485B000AF78600B467B807B684E
:1020BC00DB68FB607A88FB6813401A04FB68D94321
:1020CC007B880B401A437B681A6100BF1437BD46EE
:1020DC0080BC704780B582B000AF0346FB80084BD4
:1020EC005A69FB881340002B06D0054AFB885361C4
:1020FC00FB88184600F006F800BF0837BD4680BDC7
:10210C000004014080B483B000AF0346FB8000BFE5
:10211C000C37BD4680BC704780B584B000AF78608A
:10212C007B68002B01D101232BE17B6893F83D30B8
:10213C00DBB2002B06D17B68002283F83C20786848
:10214C00FFF794FA7B68242283F83D207B681B6898
:10215C001A687B681B6822F001021A607B681B6896
:10216C001A687B681B6842F400421A607B681B6823
:10217C001A687B681B6822F400421A6002F03EFD6C
:10218C00F8607B685B68814A934207D8FB68804A99
:10219C00934294BF01230023DBB206E0FB687D4A27
:1021AC00934294BF01230023DBB2002B01D0012307
:1021BC00E7E0FB68784AA2FB03239B0CBB607B68BF
:1021CC001B685B6823F03F017B681B68BA680A4395
:1021DC005A607B681B681B6A23F03F017B685B6855
:1021EC006A4A934202D8BB68013309E0BB684FF4DA
:1021FC00967202FB03F3694AA2FB03239B0901338A
:10220C007A6812680B4313627B681B68DB6923F4E2
:10221C004F4222F0FF027B685B685C498B4219D805
:10222C00FB68591E7B685B685B00B1FBF3F3591CC0
:10223C0040F6FC730B40002B0AD0FB68591E7B68E0
:10224C005B685B00B1FBF3F30133C3F30B0351E0A9
:10225C0004234FE07B689B68002B11D1FB68581E50
:10226C007B6859680B465B000B44B0FBF3F30133FE
:10227C00C3F30B03002B0CBF01230023DBB212E0D2
:10228C00FB68581E7B6859680B469B000B449900F1
:10229C000B44B0FBF3F30133C3F30B03002B0CBF64
:1022AC0001230023DBB2002B01D0012322E07B6849
:1022BC009B68002B0ED1FB68581E7B6859680B4637
:1022CC005B000B44B0FBF3F30133C3F30B0343F498
:1022DC0000430FE0FB68581E7B6859680B469B0057
:1022EC000B4499000B44B0FBF3F30133C3F30B0322
:1022FC0043F44043796809681343CB617B681B68DE
:10230C001B6823F0C0017B68DA697B681B6A1A437F
:10231C007B681B680A431A607B681B689B6823F404
:10232C00034323F0FF037A6811697A68D26811437A
:10233C007A6812680B4393607B681B68DB6823F038
:10234C00FF017B685A697B689B691A437B681B6831
:10235C000A43DA607B681B681A687B681B6842F06A
:10236C0001021A607B6800221A647B68202283F8C1
:10237C003D207B6800221A637B68002283F83E2094
:10238C00002318461037BD4680BD00BFA086010053
:10239C007F841E00FF083D0083DE1B43D34D62107B
:1023AC0080B483B000AF78607B681B685B6903F016
:1023BC008003802B03D17B681B6800221A6100BF4D
:1023CC000C37BD4680BC704780B588B002AFF86052
:1023DC007A601A460B467B8113463B81FFF710FB54
:1023EC007861FB6893F83D30DBB2202B40F0E08045
:1023FC007B690093192301227049F86801F012FEE1
:10240C000346002B01D00223D3E0FB6893F83C3049
:10241C00012B01D10223CCE0FB68012283F83C2084
:10242C00FB681B681B6803F00103012B07D0FB68DA
:10243C001B681A68FB681B6842F001021A60FB6893
:10244C001B681A68FB681B6822F400621A60FB6840
:10245C00212283F83D20FB68102283F83E20FB6884
:10246C0000221A64FB687A685A62FB683A895A85BA
:10247C00FB685B8D9AB2FB681A85FB68504ADA627E
:10248C0079897B693A6AF86801F0A2FC0346002B53
:10249C0001D001238DE000233B61FB681B685B6965
:1024AC003B61FB681B689B693B613B6966E07A6931
:1024BC00396AF86801F0D0FE0346002B0DD0FB689A
:1024CC001B6C042B07D1FB681B681A68FB681B6824
:1024DC0042F400721A6001236BE0FB685B6A1A78A5
:1024EC00FB681B681A61FB685B6A5A1CFB685A62C2
:1024FC00FB685B8D9BB2013B9AB2FB685A85FB680B
:10250C001B8D013B9AB2FB681A85FB681B685B69E3
:10251C0003F00403042B1BD1FB681B8D002B17D07D
:10252C00FB685B6A1A78FB681B681A61FB685B6A5C
:10253C005A1CFB685A62FB685B8D9BB2013B9AB2DA
:10254C00FB685A85FB681B8D013B9AB2FB681A85A8
:10255C007A69396AF86801F0C7FE0346002B0DD082
:10256C00FB681B6C042B07D1FB681B681A68FB68A3
:10257C001B6842F400721A6001231AE0FB681B8D81
:10258C00002B94D1FB681B681A68FB681B6842F42B
:10259C0000721A60FB68202283F83D20FB68002241
:1025AC0083F83E20FB68002283F83C20002300E0E7
:1025BC00022318461837BD4680BD00BF020010002C
:1025CC000000FFFF80B588B000AF78600023BB61CE
:1025DC007B681B685B687B617B68DB6A3B617B6843
:1025EC0093F83E30FB737B6893F83D30BB73FB7BF9
:1025FC00102B03D0FB7B402B40F0C1807B681B6809
:10260C009B69BB617B681B685B69FB61FB6903F0C1
:10261C000103002B0DD13B69B3F52A0F03D03B69A5
:10262C00B3F12A4F01D1012300E00023012B00F06C
:10263C003281FB6903F00103002B0CD07B695B0A30
:10264C0003F00103002B06D0786801F0F5FE7868E2
:10265C0000F099FD92E0FB69DB0803F00103002B0D
:10266C0009D07B695B0A03F00103002B03D0786867
:10267C0000F00EFE82E0FB695B0803F00103002B07
:10268C0009D07B695B0A03F00103002B03D0786847
:10269C0000F027FE72E0BB699B0803F00103002BDE
:1026AC003BD07B681B685B6803F40063B3F5006F79
:1026BC0000F0F380FB69DB0903F00103002B0FD062
:1026CC007B699B0A03F00103002B09D0FB699B0873
:1026DC0003F00103002B03D1786800F0F1F94DE011
:1026EC00FB699B0803F00103002B00F0D6807B698B
:1026FC005B0A03F00103002B00F0CF80BB7B212B86
:10270C0003D1786800F078FAC7E0FB7B402B40F0EF
:10271C00C480786800F0E6FABFE07B681B685B68F1
:10272C0003F40063B3F5006F00F0B780FB699B09FD
:10273C0003F00103002B0FD07B699B0A03F001030C
:10274C00002B09D0FB699B0803F00103002B03D17C
:10275C00786800F05FFB11E0FB699B0803F0010354
:10276C00002B00F09A807B695B0A03F00103002BBD
:10277C0000F09380786800F015FC8EE08DE07B68AB
:10278C001B6C002B04D07B681B685B69FB6107E04A
:10279C007B681B689B69BB617B681B685B69FB6121
:1027AC00FB695B0803F00103002B12D07B695B0A09
:1027BC0003F00103002B0CD07B681B6C002B03D0A7
:1027CC007B681B689B69BB61B969786800F0E0FFA6
:1027DC0066E0FB691B0903F00103002B09D07B6940
:1027EC005B0A03F00103002B03D0786801F01AF8A0
:1027FC0056E0BB7B212B02D0BB7B292B25D1FB695F
:10280C00DB0903F00103002B0FD07B699B0A03F05B
:10281C000103002B09D0FB699B0803F00103002B7B
:10282C0003D1786800F0F8FE39E0FB699B0803F0EF
:10283C000103002B33D07B695B0A03F00103002BEF
:10284C002DD0786800F025FF29E0FB699B0903F087
:10285C000103002B0FD07B699B0A03F00103002BB3
:10286C0009D0FB699B0803F00103002B03D17868A6
:10287C0000F02FFF14E0FB699B0803F00103002B11
:10288C000ED07B695B0A03F00103002B08D078683B
:10289C0000F05DFF04E000BF02E000BF00E000BFFD
:1028AC002037BD4680BD80B58AB000AF78607B68AC
:1028BC001B685B693B627B681B685B68FB61002380
:1028CC007B627B6893F83E30FB763B6A1B0A03F015
:1028DC000103002B16D0FB691B0A03F00103002B2C
:1028EC0010D07B6A43F001037B627B681B686FF43A
:1028FC0080725A617B681B681A687B681B6842F49B
:10290C0000421A603B6A5B0A03F00103002B0ED0F5
:10291C00FB691B0A03F00103002B08D07B6A43F010
:10292C0002037B627B681B686FF400725A613B6A1E
:10293C009B0A03F00103002B3FD0FB691B0A03F039
:10294C000103002B39D0FB7EBB767B685B8D9BB281
:10295C007B617B6893F83D30FB747B681B6BFB6081
:10296C00BB7E202B12D17B69002B0FD1FB7C212B42
:10297C0008D0FB7C292B05D0FB7C282B06D1FB68CF
:10298C00212B03D1786801F07DF816E07B681B6879
:10299C006FF480625A617B6A43F004037B62FB7EB6
:1029AC00102B02D0FB7E402B07D17B681B681A686A
:1029BC007B681B6842F400721A603B6ADB0A03F006
:1029CC000103002B0ED0FB691B0A03F00103002B43
:1029DC0008D07B6A43F008037B627B681B686FF44A
:1029EC0000625A617B6A002B08D07B681A6C7B6A88
:1029FC001A437B681A64786801F0B8F800BF28376E
:102A0C00BD4680BD80B483B000AF786000BF0C378A
:102A1C00BD4680BC704780B483B000AF786000BF07
:102A2C000C37BD4680BC704780B483B000AF786073
:102A3C0000BF0C37BD4680BC704780B483B000AF7C
:102A4C00786000BF0C37BD4680BC704780B483B043
:102A5C0000AF78600B46FB7013463B8000BF0C3711
:102A6C00BD4680BC704780B483B000AF786000BFB7
:102A7C000C37BD4680BC704780B483B000AF786023
:102A8C0000BF0C37BD4680BC704780B483B000AF2C
:102A9C00786000BF0C37BD4680BC704780B483B0F3
:102AAC0000AF786000BF0C37BD4680BC704780B467
:102ABC0083B000AF786000BF0C37BD4680BC704758
:102ACC0080B584B000AF78607B6893F83D30FB73C1
:102ADC007B6893F83E30BB737B68DB6ABB607B68BA
:102AEC001B8D002B50D1FB7B212B4DD1BB68082BB0
:102AFC001DD0BB68202B1AD0BB6813F5803F16D0B5
:102B0C007B681B685A687B681B6822F4E0625A6019
:102B1C007B6811221A637B68002283F83E207B6855
:102B2C00202283F83D207868FFF76CFF60E07B681B
:102B3C001B685A687B681B6822F4E0625A607B68E9
:102B4C001B681A687B681B6842F400721A607B6809
:102B5C0000221A637B68202283F83D207B6893F85F
:102B6C003E30DBB2402B07D17B68002283F83E203D
:102B7C007868FFF781FF3BE07B68002283F83E20FA
:102B8C007868FFF73FFF33E0FB7B212B05D0BB7B45
:102B9C00402B2DD1FB7B222B2AD17B685B8D9BB2EA
:102BAC00002B08D17B681B685A687B681B6822F471
:102BBC0080625A601CE07B6893F83E30DBB2402B9D
:102BCC0003D1786800F08EF812E07B685B6A1A78A3
:102BDC007B681B681A617B685B6A5A1C7B685A624B
:102BEC007B685B8D9BB2013B9AB27B685A85FFE791
:102BFC0000BF1037BD4680BD80B584B000AF786093
:102C0C007B68DB6AFB607B6893F83D30DBB2212B81
:102C1C0064D17B685B8D9BB2002B12D07B685B6AA6
:102C2C001A787B681B681A617B685B6A5A1C7B6824
:102C3C005A627B685B8D9BB2013B9AB27B685A856A
:102C4C004CE0FB68082B1DD0FB68202B1AD0FB68CE
:102C5C0013F5803F16D07B681B685A687B681B682D
:102C6C0022F4E0625A607B6811221A637B680022AE
:102C7C0083F83E207B68202283F83D207868FFF79C
:102C8C00C1FE2BE07B681B685A687B681B6822F4CA
:102C9C00E0625A607B681B681A687B681B6842F4A8
:102CAC0000721A607B6800221A637B68202283F80A
:102CBC003D207B6893F83E30DBB2402B07D17B681C
:102CCC00002283F83E207868FFF7D6FE06E07B688A
:102CDC00002283F83E207868FFF794FE00BF10377F
:102CEC00BD4680BD80B584B000AF78607B6893F83A
:102CFC003D30FB737B681B6D002B1DD17B68DB6C3F
:102D0C00012B0BD17B689B6CDAB27B681B681A6158
:102D1C007B681B6D9A1C7B681A6577E07B689B6CE3
:102D2C009BB21B12DAB27B681B681A617B681B6D45
:102D3C005A1C7B681A6569E07B681B6D012B0BD1F3
:102D4C007B689B6CDAB27B681B681A617B681B6DB5
:102D5C005A1C7B681A6559E07B681B6D022B52D19B
:102D6C00FB7B222B0DD17B681B681A687B681B6868
:102D7C0042F480721A607B681B6D5A1C7B681A6562
:102D8C0044E07B685B8D9BB2002B15D0FB7B212B29
:102D9C0012D17B685B6A1A787B681B681A617B6846
:102DAC005B6A5A1C7B685A627B685B8D9BB2013BE9
:102DBC009AB27B685A8529E07B685B8D9BB2002BAD
:102DCC0024D1FB7B212B21D17B681B685A687B6843
:102DDC001B6822F4E0625A607B681B681A687B6887
:102DEC001B6842F400721A607B6800221A637B68CD
:102DFC00202283F83D207B68002283F83E207868EF
:102E0C00FFF73AFE02E07868FFF7CAFA00BF103706
:102E1C00BD4680BD80B584B000AF78607B6893F808
:102E2C003D30DBB2222B40F0B9807B68DB6AFB6063
:102E3C007B685B8D9BB2BB60BB68032B21D97B6825
:102E4C001B681A697B685B6AD2B21A707B685B6A12
:102E5C005A1C7B685A627B685B8D9BB2013B9AB2B1
:102E6C007B685A857B685B8D9BB2032B40F0968008
:102E7C007B681B685A687B681B6822F480625A6006
:102E8C008CE07B68DB6A022B7FD0BB68012B02D005
:102E9C00BB68002B79D1786801F06EFA0346002BE1
:102EAC004CD17B681B681A687B681B6822F48062B3
:102EBC001A607B681B685A687B681B6822F4E062A6
:102ECC005A607B681B681A697B685B6AD2B21A709D
:102EDC007B685B6A5A1C7B685A627B685B8D9BB211
:102EEC00013B9AB27B685A857B68202283F83D208F
:102EFC007B6893F83E30DBB2402B0AD17B68002212
:102F0C0083F83E207B6800221A637868FFF7BDFDCA
:102F1C0044E07B68002283F83E20FB68082B02D03B
:102F2C00FB68202B03D17B6800221A6302E07B68CC
:102F3C0012221A637868FFF76EFD2FE07B681B681E
:102F4C005A687B681B6822F4E0625A607B681B68D5
:102F5C001A697B685B6AD2B21A707B685B6A5A1C0E
:102F6C007B685A627B685B8D9BB2013B9AB27B6833
:102F7C005A857B68202283F83D207B68002283F8E9
:102F8C003E207868FFF78AFD08E07B681B685A686A
:102F9C007B681B6822F480625A60FFE700BF103721
:102FAC00BD4680BD80B584B000AF78607B68DB6ABD
:102FBC00FB607B685B8D9BB2042B1BD17B681B6811
:102FCC005A687B681B6822F480625A607B681B68B5
:102FDC001A697B685B6AD2B21A707B685B6A5A1C8E
:102FEC007B685A627B685B8D9BB2013B9AB27B68B3
:102FFC005A85C4E07B685B8D9BB2032B29D17B681F
:10300C001B685A687B681B6822F480625A60FB68F4
:10301C00042B0AD0FB68022B07D07B681B681A684C
:10302C007B681B6822F480621A607B681B681A69D3
:10303C007B685B6AD2B21A707B685B6A5A1C7B68CD
:10304C005A627B685B8D9BB2013B9AB27B685A8556
:10305C0095E07B685B8D9BB2022B7DD1FB68012BCD
:10306C0002D0FB68102B08D17B681B681A687B6840
:10307C001B6822F480621A6016E0FB68042B02D0F5
:10308C00FB68022B08D17B681B681A687B681B687D
:10309C0042F480621A6007E07B681B681A687B68E0
:1030AC001B6842F400721A607B681B681A697B68A3
:1030BC005B6AD2B21A707B685B6A5A1C7B685A6274
:1030CC007B685B8D9BB2013B9AB27B685A857B68AF
:1030DC001B681A697B685B6AD2B21A707B685B6A80
:1030EC005A1C7B685A627B685B8D9BB2013B9AB21F
:1030FC007B685A857B681B685A687B681B6822F45E
:10310C0040725A607B68202283F83D207B6893F8DC
:10311C003E30DBB2402B0AD17B68002283F83E2084
:10312C007B6800221A637868FFF7AFFC27E07B68A6
:10313C00002283F83E20FB68082B02D0FB68202B72
:10314C0003D17B6800221A6302E07B6812221A63A7
:10315C007868FFF760FC12E07B681B681A697B6873
:10316C005B6AD2B21A707B685B6A5A1C7B685A62C3
:10317C007B685B8D9BB2013B9AB27B685A8500BF22
:10318C001037BD4680BD80B483B000AF78607B68DB
:10319C0093F83E30DBB2402B17D17B681B6D002BB4
:1031AC0009D17B685B6CDBB21A467B681B6802F04A
:1031BC00FE021A6167E07B685B6CDBB243F00103D3
:1031CC00DAB27B681B681A615DE07B681B69B3F53A
:1031DC00804F33D17B6893F83D30DBB2212B09D182
:1031EC007B685B6CDBB21A467B681B6802F0FE02E4
:1031FC001A6108E07B685B6CDBB243F00103DAB266
:10320C007B681B681A617B685B6B002B04D07B6846
:10321C005B6B9B6A002B08D17B689B6B002B32D0BD
:10322C007B689B6B9B6A002B2DD07B681B685A6854
:10323C007B681B6842F400625A6024E07B681B6D5B
:10324C00002B0ED17B685B6C9BB2DB11DBB203F005
:10325C000603DBB263F00F03DAB27B681B681A61FA
:10326C0011E07B681B6D012B0DD17B685B6C9BB2F5
:10327C00DB11DBB203F00603DBB263F00E03DAB250
:10328C007B681B681A6100BF0C37BD4680BC704759
:10329C0080B483B000AF78607B685B6CDAB27B681B
:1032AC001B681A617B685B6B002B04D07B685B6BC3
:1032BC009B6A002B08D17B689B6B002B0CD07B6826
:1032CC009B6B9B6A002B07D07B681B685A687B68DA
:1032DC001B6842F400625A6000BF0C37BD4680BCCC
:1032EC00704780B491B000AF78607B6893F83E3043
:1032FC0087F83F307B68DB6ABB637B681B6B7B6347
:10330C007B6893F83D30DBB2222B40F074817B68F4
:10331C001B6D002B0FD197F83F30402B0BD10023A6
:10332C003B637B681B685B693B637B681B689B69C1
:10333C003B633B6B6BE17B681B6D002B1DD17B688A
:10334C001B69B3F5404F18D10023FB627B681B68E7
:10335C005B69FB627B681B689B69FB62FB6A7B6831
:10336C001B681A687B681B6842F480721A607B6861
:10337C001B6D5A1C7B681A6549E17B685B8D9BB29F
:10338C00002B13D10023BB627B681B685B69BB629B
:10339C007B681B689B69BB62BB6A7B681B681A688D
:1033AC007B681B6842F400721A6020E17B685B8DBD
:1033BC009BB2012B40F08A80BB6B13F5803F37D159
:1033CC007B681B681A687B681B6822F480621A6031
:1033DC007B681B685B6803F40063B3F5006F13D163
:1033EC007B681B681A687B681B6822F480621A6011
:1033FC0000237B627B681B685B697B627B681B6854
:10340C009B697B627B6AF2E000233B627B681B68F2
:10341C005B693B627B681B689B693B623B6A7B68B0
:10342C001B681A687B681B6842F400721A60DEE045
:10343C00BB6B082B2ED0BB6B202B2BD07B6B122B9A
:10344C0002D1BB6B012B25D1BB6B042B0ED0BB6BFC
:10345C00022B0BD0BB6B102B08D07B681B681A6837
:10346C007B681B6822F480621A6007E07B681B682B
:10347C001A687B681B6842F480621A600023FB6147
:10348C007B681B685B69FB617B681B689B69FB61E4
:10349C00FB69ACE07B681B681A687B681B6822F4CC
:1034AC0080621A600023BB617B681B685B69BB612F
:1034BC007B681B689B69BB61BB697B681B681A686E
:1034CC007B681B6842F400721A6090E07B685B8D2D
:1034DC009BB2022B58D1BB6B042B21D0BB6B022BA4
:1034EC001ED0BB6B102B1BD07B681B681A687B68CB
:1034FC001B6842F400621A6000237B617B681B68C6
:10350C005B697B617B681B689B697B617B697B6802
:10351C001B681A687B681B6822F480621A6012E0D0
:10352C007B681B681A687B681B6842F480621A60AF
:10353C0000233B617B681B685B693B617B681B6894
:10354C009B693B613B697B681B685B6803F40063A8
:10355C00B3F5006F4BD1BB6B13F5803F0BD0BB6B3E
:10356C00012B08D0BB6B082B05D0BB6B102B02D0EA
:10357C00BB6B202B3BD17B681B685A687B681B6834
:10358C0042F480525A6032E07B681B681A687B6890
:10359C001B6842F480621A607B681B685B6803F4EA
:1035AC000063B3F5006F17D1BB6B13F5803F0BD0E5
:1035BC00BB6B012B08D0BB6B082B05D0BB6B102B46
:1035CC0002D0BB6B202B07D17B681B685A687B68C9
:1035DC001B6842F480525A600023FB607B681B68B6
:1035EC005B69FB607B681B689B69FB60FB687B68A5
:1035FC0000221A650BE00023BB607B681B685B69CB
:10360C00BB607B681B689B69BB60BB68FFE700BF46
:10361C004437BD4680BC704780B584B000AF78603D
:10362C007B6893F83D30FB737B685B8D9BB2002B02
:10363C002BD07B685B6A1A787B681B681A617B6885
:10364C005B6A5A1C7B685A627B685B8D9BB2013B40
:10365C009AB27B685A857B685B8D9BB2002B14D128
:10366C00FB7B292B11D17B681B685A687B681B6814
:10367C0022F480625A607B6821221A637B682822BC
:10368C0083F83D207868FFF7CFF900BF1037BD46AF
:10369C0080BD80B483B000AF78607B685B8D9BB2DB
:1036AC00002B11D07B685B6A1A787B681B681A61E7
:1036BC007B685B6A5A1C7B685A627B685B8D9BB229
:1036CC00013B9AB27B685A8500BF0C37BD4680BC63
:1036DC00704780B584B000AF78607B6893F83D305C
:1036EC00FB737B685B8D9BB2002B2CD07B681B68BB
:1036FC001A697B685B6AD2B21A707B685B6A5A1C67
:10370C007B685A627B685B8D9BB2013B9AB27B688B
:10371C005A857B685B8D9BB2002B14D1FB7B2A2BCB
:10372C0011D17B681B685A687B681B6822F4806225
:10373C005A607B6822221A637B68282283F83D201A
:10374C007868FFF77AF900BF1037BD4680BD80B4AA
:10375C0083B000AF78607B685B8D9BB2002B12D07E
:10376C007B681B681A697B685B6AD2B21A707B68CB
:10377C005B6A5A1C7B685A627B685B8D9BB2013B0F
:10378C009AB27B685A8500BF0C37BD4680BC704727
:10379C0080B584B000AF786039600023FB737B6820
:1037AC0093F83D30DBB203F02803282B27D17B683C
:1037BC001B685A687B681B6822F480625A603B68FD
:1037CC009B0803F00103002B01D10123FB733B6821
:1037DC00DB0903F00103002B03D17B68DB68BB81A1
:1037EC0002E07B689B69BB817B68002283F83C20EC
:1037FC00BA89FB7B19467868FFF728F90EE000239D
:10380C00BB607B681B685B69BB607B681B689B69E2
:10381C00BB60BB687B68002283F83C2000BF10377C
:10382C00BD4680BD80B584B000AF78607B6893F8EE
:10383C003D30FB737B681B685A687B681B6822F4FD
:10384C00E0625A600023BB607B681B685B69BB60ED
:10385C007B681B681A687B681B6842F001021A605F
:10386C00BB687B681B681A687B681B6822F48062E3
:10387C001A607B681B685B6803F40063B3F5006F28
:10388C0072D1FB7B222B02D0FB7B2A2B35D17B68A0
:10389C009B6B1B685B689AB27B685A857B685B8DF7
:1038AC009BB2002B05D07B681B6C43F004027B6839
:1038BC001A647B681B685A687B681B6822F4006278
:1038CC005A607B689B6B1846FEF72AFA0346012B5D
:1038DC0049D07B689B6B694A5A637B689B6B184623
:1038EC00FEF7A6F90346002B3DD07B689B6B5B6B08
:1038FC007A68926B1046984735E07B685B6B1B6867
:10390C005B689AB27B685A857B685B8D9BB2002B97
:10391C0005D07B681B6C43F004027B681A647B68DF
:10392C001B685A687B681B6822F400625A607B68CB
:10393C005B6B1846FEF7F4F90346012B14D07B6839
:10394C005B6B4E4A5A637B685B6B1846FEF770F9EB
:10395C000346002B08D07B685B6B5B6B7A68526B01
:10396C001046984700E000BF7B685B8D9BB2002B34
:10397C003ED07B681B685B6903F00403042B12D1F7
:10398C007B681B681A697B685B6AD2B21A707B68A9
:10399C005B6A5A1C7B685A627B685B8D9BB2013BED
:1039AC009AB27B685A857B681B685B6903F040039D
:1039BC00402B12D17B681B681A697B685B6AD2B298
:1039CC001A707B685B6A5A1C7B685A627B685B8DD9
:1039DC009BB2013B9AB27B685A857B685B8D9BB22C
:1039EC00002B05D07B681B6C43F004027B681A64C7
:1039FC007B681B6C002B03D0786800F0B7F839E0BB
:103A0C00FB7B2A2B09D17B6800221A637B68282256
:103A1C0083F83D207868FFF710F87B6893F83D3009
:103A2C00DBB2282B11D17B68154ADA627B68002245
:103A3C001A637B68202283F83D207B68002283F880
:103A4C003E207868FFF70FF814E07B681B6B222B85
:103A5C0002D0FB7B222B0DD17B6800221A637B6882
:103A6C00202283F83D207B68002283F83E20786872
:103A7C00FEF7E3FF00BF1037BD4680BDE13E0008F6
:103A8C000000FFFF80B584B000AF78607B6893F8CE
:103A9C003D30FB737B68DB6ABB60BB68082B02D0D4
:103AAC00BB68202B29D1FB7B282B26D17B682E4A87
:103ABC00DA627B681B685A687B681B6822F4E062D8
:103ACC005A607B681B686FF480625A617B681B6864
:103ADC001A687B681B6822F480621A607B6800227B
:103AEC001A637B68202283F83D207B68002283F8D0
:103AFC003E207868FEF7B7FF31E0FB7B212B29D104
:103B0C007B68194ADA627B6821221A637B6820225F
:103B1C0083F83D207B68002283F83E207B681B687D
:103B2C005A687B681B6822F4E0625A607B681B68E9
:103B3C006FF480625A617B681B681A687B681B682B
:103B4C0022F480621A607868FEF72AFC7868FEF727
:103B5C006BFF04E07B681B686FF480625A6100BFE6
:103B6C001037BD4680BD00BF0000FFFF80B584B09C
:103B7C0000AF78607B6893F83D30FB737B6893F8FB
:103B8C003E30BB73BB7B102B02D0BB7B402B0AD1CE
:103B9C00FB7B222B07D17B681B681A687B681B6830
:103BAC0022F400621A60FB7B03F02803282B07D158
:103BBC007B6800221A637B68282283F83D2015E07D
:103BCC007B681B685B6803F40063B3F5006F0AD075
:103BDC00FB7B602B07D07B68202283F83D207B6821
:103BEC00002283F83E207B6800221A637B681B68E6
:103BFC005B6803F40063B3F5006F62D17B681B68EC
:103C0C005A687B681B6822F400625A607B685B6BA5
:103C1C0093F82130DBB2012B20D07B685B6B6A4AB6
:103C2C005A637B685B6B1846FEF702F80346002B61
:103C3C0000F089807B681B681A687B681B6822F01F
:103C4C0001021A607B68202283F83D207B685B6B45
:103C5C005B6B7A68526B1046984774E07B689B6B81
:103C6C00594A5A637B689B6B1846FDF7E1FF034684
:103C7C00002B68D07B681B685B6903F04003402B0A
:103C8C000BD17B681B681A697B685B6AD2B21A70AD
:103C9C007B685B6A5A1C7B685A627B681B681A6873
:103CAC007B681B6822F001021A607B68202283F873
:103CBC003D207B689B6B5B6B7A68926B10469847D8
:103CCC0041E07B6893F83D30DBB2602B25D17B68FB
:103CDC00202283F83D207B6800221A647B681B68D5
:103CEC005B6903F04003402B0BD17B681B681A699E
:103CFC007B685B6AD2B21A707B685B6A5A1C7B6801
:103D0C005A627B681B681A687B681B6822F0010288
:103D1C001A607868FEF7CBFE15E07B681B685B6960
:103D2C0003F04003402B0BD17B681B681A697B683E
:103D3C005B6AD2B21A707B685B6A5A1C7B685A62E7
:103D4C007868FEF7ABFE7B681B6CBB60BB6803F04E
:103D5C000103002B0ED1BB6803F00203002B09D129
:103D6C00BB6803F00403002B04D1BB6803F0080309
:103D7C00002B07D07B681B685A687B681B6822F491
:103D8C00E0625A607B6893F83D30FB737B681B6C78
:103D9C0003F00403042B13D1FB7B282B10D17B687D
:103DAC000A4ADA627B6800221A637B68202283F855
:103DBC003D207B68002283F83E207868FEF753FE96
:103DCC0000BF1037BD4680BDE13E00080000FFFF7C
:103DDC0080B588B002AFF8607A603B600B467B819F
:103DEC00FB68DB6A7B617B69082B06D07B69012B46
:103DFC0003D07B6913F5803F08D1FB681B681A68F8
:103E0C00FB681B6842F480721A600BE0FB681B6B4A
:103E1C00122B07D1FB681B681A68FB681B6842F4FD
:103E2C0080721A603B6800937B6800224FF001118E
:103E3C00F86800F0F7F80346002B0DD0FB681B6800
:103E4C001B6803F48073B3F5807F03D1FB684FF4D8
:103E5C0000721A64032335E0FB681B69B3F5804FCD
:103E6C0008D17B89DBB21A46FB681B6802F0FE02A4
:103E7C001A611BE07B89DB11DBB203F00603DBB2BA
:103E8C0063F00F03DAB2FB681B681A613B687A684F
:103E9C000E49F86800F040F90346002B01D00123CD
:103EAC0010E07B89DAB2FB681B681A613B687A68A0
:103EBC000749F86800F030F90346002B01D00123C4
:103ECC0000E0002318461837BD4680BD08000100ED
:103EDC000200010080B586B000AF78600023FB6063
:103EEC007B685B6A7B617B6993F83D30FB744B4B61
:103EFC001B68DB084A4AA2FB03231A0A13469B00E1
:103F0C001344DA00D31AFB60FB68002B06D17B69E3
:103F1C001B6C43F020027B691A640AE0FB68013BCE
:103F2C00FB607B691B681B6803F40073B3F5007FAF
:103F3C00EAD07B695B6B002B03D07B695B6B002247
:103F4C009A627B699B6B002B03D07B699B6B002275
:103F5C009A627B691B681A687B691B6822F4806211
:103F6C001A607B6900225A857B695B6B002B03D03E
:103F7C007B695B6B00225A637B699B6B002B03D0C4
:103F8C007B699B6B00225A637B691B681A687B698F
:103F9C001B6822F001021A607B6993F83D30DBB29A
:103FAC00602B0ED17B69202283F83D207B69002297
:103FBC0083F83E207B6900221A647869FEF777FD4E
:103FCC0027E0FB7C03F02803282B17D17B691B68A7
:103FDC001A687B691B6842F001021A607B691B68D6
:103FEC001A687B691B6842F480621A607B69002244
:103FFC001A637B69282283F83D2007E07B69202225
:10400C0083F83D207B69002283F83E207869FEF717
:10401C0045FD00BF1837BD4680BD00BF980000208D
:10402C0089B5F81480B584B000AFF860B9603B6016
:10403C001346FB7148E03B68B3F1FF3F44D0FDF7FA
:10404C00DFFC0246BB69D31A3A689A4202D33B683A
:10405C00002B39D1BB681B0CDBB2012B0DD1FB68DB
:10406C001B685B69DA43BB6813409BB2002B0CBF27
:10407C0001230023DBB21A460CE0FB681B689B692A
:10408C00DA43BB6813409BB2002B0CBF0123002307
:10409C00DBB21A46FB799A4216D1FB6800221A63EE
:1040AC00FB68202283F83D20FB68002283F83E2029
:1040BC00FB681B6C43F02002FB681A64FB6800224F
:1040CC0083F83C20012323E0BB681B0CDBB2012BE3
:1040DC000DD1FB681B685B69DA43BB6813409BB26C
:1040EC00002B0CBF01230023DBB21A460CE0FB684B
:1040FC001B689B69DA43BB6813409BB2002B0CBF57
:10410C0001230023DBB21A46FB799A4293D0002399
:10411C0018461037BD4680BD80B584B000AFF8603E
:10412C00B9607A603B6071E0FB681B685B6903F403
:10413C008063B3F5806F23D1FB681B681A68FB683A
:10414C001B6842F400721A60FB681B686FF4806293
:10415C005A61FB6800221A63FB68202283F83D2019
:10416C00FB68002283F83E20FB681B6C43F00402C2
:10417C00FB681A64FB68002283F83C20012367E08B
:10418C007B68B3F1FF3F41D0FDF73AFC02463B6838
:10419C00D31A7A689A4202D37B68002B36D1BB685B
:1041AC001B0CDBB2012B0CD1FB681B685B69DA437F
:1041BC00BB6813409BB2002B14BF01230023DBB25E
:1041CC000BE0FB681B689B69DA43BB6813409BB22E
:1041DC00002B14BF01230023DBB2002B16D0FB688D
:1041EC0000221A63FB68202283F83D20FB68002222
:1041FC0083F83E20FB681B6C43F02002FB681A64BA
:10420C00FB68002283F83C20012321E0BB681B0CD7
:10421C00DBB2012B0CD1FB681B685B69DA43BB6812
:10422C0013409BB2002B14BF01230023DBB20BE025
:10423C00FB681B689B69DA43BB6813409BB2002B7D
:10424C0014BF01230023DBB2002B7FF46DAF0023DE
:10425C0018461037BD4680BD80B584B000AFF860FD
:10426C00B9607A6034E0F86800F0B8F80346002BC7
:10427C0001D0012334E0BB68B3F1FF3F28D0FDF738
:10428C00BFFB02467B68D31ABA689A4202D3BB685A
:10429C00002B1DD1FB681B685B6903F08003802B2E
:1042AC0016D0FB6800221A63FB68202283F83D209D
:1042BC00FB68002283F83E20FB681B6C43F0200255
:1042CC00FB681A64FB68002283F83C20012307E09A
:1042DC00FB681B685B6903F08003802BC3D1002350
:1042EC0018461037BD4680BD80B584B000AFF8606D
:1042FC00B9607A6034E0F86800F070F80346002B7F
:10430C0001D0012334E0BB68B3F1FF3F28D0FDF7A7
:10431C0077FB02467B68D31ABA689A4202D3BB6811
:10432C00002B1DD1FB681B685B6903F00403042B95
:10433C0016D0FB6800221A63FB68202283F83D200C
:10434C00FB68002283F83E20FB681B6C43F02002C4
:10435C00FB681A64FB68002283F83C20012307E009
:10436C00FB681B685B6903F00403042BC3D10023B7
:10437C0018461037BD4680BD80B485B000AF78605C
:10438C000023FB60134B1B68DB08134AA2FB0323BF
:10439C001A0A13469B001344FB60FB68013BFB604D
:1043AC00FB68002B07D17B681B6C43F020027B68F9
:1043BC001A64012308E07B681B681B6803F4007314
:1043CC00B3F5007FE9D0002318461437BD4680BCF6
:1043DC00704700BF9800002089B5F81480B483B0F2
:1043EC0000AF78607B681B685B6903F48063B3F58E
:1043FC00806F1BD17B681B686FF480625A617B688D
:10440C0000221A637B68202283F83D207B680022FF
:10441C0083F83E207B681B6C43F004027B681A64B3
:10442C007B68002283F83C20012300E0002318461F
:10443C000C37BD4680BC704780B483B000AF786049
:10444C007B68DB6AB3F52A0F03D17B680122DA6241
:10445C0007E07B68DB6AB3F12A4F02D17B68082244
:10446C00DA6200BF0C37BD4680BC704780B586B0A1
:10447C0000AF78607B68002B01D101236CE27B6874
:10448C001B6803F00103002B00F08780924B5B68E4
:10449C0003F00C03042B0CD08F4B5B6803F00C0364
:1044AC00082B12D18C4B5B6803F48033B3F5803F3F
:1044BC000BD1894B1B6803F40033002B6CD07B6849
:1044CC005B68002B68D1012346E27B685B68B3F51F
:1044DC00803F06D1804B1B687F4A43F480331360C6
:1044EC002EE07B685B68002B0CD17B4B1B687A4AF7
:1044FC0023F480331360784B1B68774A23F48023B2
:10450C0013601DE07B685B68B3F5A02F0CD1724B78
:10451C001B68714A43F4802313606F4B1B686E4A0F
:10452C0043F4803313600BE06B4B1B686A4A23F433
:10453C0080331360684B1B68674A23F48023136035
:10454C007B685B68002B13D0FDF75AFA386108E0E2
:10455C00FDF756FA02463B69D31A642B01D90323A3
:10456C00FAE15D4B1B6803F40033002BF0D014E030
:10457C00FDF746FA386108E0FDF742FA02463B695E
:10458C00D31A642B01D90323E6E1534B1B6803F4C4
:10459C000033002BF0D100E000BF7B681B6803F0F8
:1045AC000203002B63D04C4B5B6803F00C03002B15
:1045BC000BD0494B5B6803F00C03082B1CD1464B0A
:1045CC005B6803F48033002B16D1434B1B6803F05C
:1045DC000203002B05D07B681B69012B01D0012342
:1045EC00BAE13D4B1B6823F0F8027B685B69DB008A
:1045FC00394913430B603AE07B681B69002B20D0D0
:10460C00364B01221A60FDF7FBF9386108E0FDF723
:10461C00F7F902463B69D31A022B01D903239BE11C
:10462C002D4B1B6803F00203002BF0D02A4B1B68A8
:10463C0023F0F8027B685B69DB00274913430B60AE
:10464C0015E0264B00221A60FDF7DAF9386108E014
:10465C00FDF7D6F902463B69D31A022B01D9032385
:10466C007AE11D4B1B6803F00203002BF0D17B6831
:10467C001B6803F00803002B3AD07B689B69002B66
:10468C0019D0174B01221A60FDF7BAF9386108E00E
:10469C00FDF7B6F902463B69D31A022B01D9032365
:1046AC005AE10D4B5B6A03F00203002BF0D00120A2
:1046BC0000F0CCFA1CE00A4B00221A60FDF7A0F9BE
:1046CC0038610FE0FDF79CF902463B69D31A022BC7
:1046DC0008D9032340E100BF001002400000424211
:1046EC00800442429E4B5B6A03F00203002BE9D12B
:1046FC007B681B6803F00403002B00F0A6800023EA
:10470C00FB75974BDB6903F08053002B0DD1944B59
:10471C00DB69934A43F08053D361914BDB6903F01F
:10472C008053BB60BB680123FB758E4B1B6803F485
:10473C008073002B18D18B4B1B688A4A43F480730F
:10474C001360FDF75DF9386108E0FDF759F9024691
:10475C003B69D31A642B01D90323FDE0814B1B6801
:10476C0003F48073002BF0D07B68DB68012B06D13F
:10477C007B4B1B6A7A4A43F0010313622DE07B6882
:10478C00DB68002B0CD1764B1B6A754A23F00103B6
:10479C001362734B1B6A724A23F0040313621CE00E
:1047AC007B68DB68052B0CD16D4B1B6A6C4A43F0A4
:1047BC00040313626A4B1B6A694A43F001031362D8
:1047CC000BE0674B1B6A664A23F001031362644BD0
:1047DC001B6A634A23F0040313627B68DB68002BBB
:1047EC0015D0FDF70DF938610AE0FDF709F902461D
:1047FC003B69D31A41F28832934201D90323ABE0CF
:10480C00574B1B6A03F00203002BEED014E0FDF7AC
:10481C00F7F838610AE0FDF7F3F802463B69D31A62
:10482C0041F28832934201D9032395E04C4B1B6A29
:10483C0003F00203002BEED1FB7D012B05D1484B7D
:10484C00DB69474A23F08053D3617B68DB69002B1B
:10485C0000F08180424B5B6803F00C03082B61D0A5
:10486C007B68DB69022B46D13F4B00221A60FDF7B7
:10487C00C7F8386108E0FDF7C3F802463B69D31A64
:10488C00022B01D9032367E0354B1B6803F000733F
:10489C00002BF0D17B681B6AB3F5803F08D1304BFD
:1048AC005B6823F400327B689B682D4913434B6093
:1048BC002B4B5B6823F474127B68196A7B685B6A08
:1048CC000B43274913434B60274B01221A60FDF71A
:1048DC0097F8386108E0FDF793F802463B69D31A64
:1048EC00022B01D9032337E01D4B1B6803F0007327
:1048FC00002BF0D02FE01C4B00221A60FDF780F843
:10490C00386108E0FDF77CF802463B69D31A022BAC
:10491C0001D9032320E0124B1B6803F00073002B1A
:10492C00F0D118E07B68DB69012B01D1012313E086
:10493C000B4B5B68FB60FB6803F480327B681B6A83
:10494C009A4206D1FB6803F470127B685B6A9A4248
:10495C0001D0012300E0002318461837BD4680BD66
:10496C0000100240007000406000424280B584B0EC
:10497C0000AF786039607B68002B01D10123D0E057
:10498C006A4B1B6803F007033A689A4210D9674BCD
:10499C001B6823F0070265493B6813430B60634BAC
:1049AC001B6803F007033A689A4201D00123B8E070
:1049BC007B681B6803F00203002B20D07B681B680C
:1049CC0003F00403002B05D0594B5B68584A43F4A1
:1049DC00E06353607B681B6803F00803002B05D071
:1049EC00534B5B68524A43F460535360504B5B68C3
:1049FC0023F0F0027B689B684D4913434B607B6846
:104A0C001B6803F00103002B40D07B685B68012B13
:104A1C0007D1474B1B6803F40033002B15D101233E
:104A2C007FE07B685B68022B07D1414B1B6803F06E
:104A3C000073002B09D1012373E03D4B1B6803F07D
:104A4C000203002B01D101236BE0394B5B6823F08F
:104A5C0003027B685B68364913434B60FCF7D0FF5D
:104A6C00F8600AE0FCF7CCFF0246FB68D31A41F26F
:104A7C008832934201D9032353E02D4B5B6803F03A
:104A8C000C027B685B689B009A42EBD1274B1B683E
:104A9C0003F007033A689A4210D2244B1B6823F0A8
:104AAC00070222493B6813430B60204B1B6803F041
:104ABC0007033A689A4201D0012332E07B681B68F5
:104ACC0003F00403002B08D0194B5B6823F4E0625D
:104ADC007B68DB68164913434B607B681B6803F0EB
:104AEC000803002B09D0124B5B6823F460527B68DF
:104AFC001B69DB000E4913434B6000F021F80246A2
:104B0C000B4B5B681B0903F00F030A49CB5C22FAC1
:104B1C0003F3094A1360094B1B681846FCF72EFF78
:104B2C00002318461037BD4680BD00BF0020024050
:104B3C000010024098620008980000209C000020A1
:104B4C0080B487B000AF0023FB600023BB60002360
:104B5C007B6100237B6000233B611E4B5B68FB6029
:104B6C00FB6803F00C03042B02D0082B03D027E0C6
:104B7C00194B3B6127E0FB689B0C03F00F03174AB2
:104B8C00D35C7B60FB6803F48033002B10D0114B9B
:104B9C005B685B0C03F00103114AD35CBB607B6860
:104BAC000D4A02FB03F2BB68B2FBF3F37B6104E03A
:104BBC007B680C4A02FB03F37B617B693B6102E07F
:104BCC00054B3B6100BF3B6918461C37BD4680BC9A
:104BDC00704700BF0010024000127A00B06200085B
:104BEC00C062000800093D0080B400AF024B1B6896
:104BFC001846BD4680BC70479800002080B500AFB9
:104C0C00FFF7F2FF0246054B5B681B0A03F0070334
:104C1C000349CB5C22FA03F3184680BD0010024016
:104C2C00A862000880B500AFFFF7DEFF0246054B17
:104C3C005B68DB0A03F007030349CB5C22FA03F33E
:104C4C00184680BD00100240A862000880B485B0F0
:104C5C0000AF78600A4B1B680A4AA2FB03235B0A6D
:104C6C007A6802FB03F3FB6000BFFB685A1EFA6014
:104C7C00002BF9D100BF00BF1437BD4680BC704774
:104C8C0098000020D34D621080B582B000AF7860E0
:104C9C007B68002B01D1012341E07B6893F83D3008
:104CAC00DBB2002B06D17B68002283F83C207868AD
:104CBC00FCF73CFD7B68022283F83D207B681A6878
:104CCC007B6804331946104600F05CFA7B680122BD
:104CDC0083F846207B68012283F83E207B68012202
:104CEC0083F83F207B68012283F840207B680122F7
:104CFC0083F841207B68012283F842207B680122E3
:104D0C0083F843207B68012283F844207B680122CE
:104D1C0083F845207B68012283F83D200023184648
:104D2C000837BD4680BD000080B485B000AF786008
:104D3C007B6893F83D30DBB2012B01D001233AE0C4
:104D4C007B68022283F83D207B681B68DA687B68ED
:104D5C001B6842F00102DA607B681B68184A9342B8
:104D6C000ED07B681B68B3F1804F09D07B681B6841
:104D7C00144A934204D07B681B68134A934211D1A6
:104D8C007B681B689B6803F00703FB60FB68062BC2
:104D9C0010D07B681B681A687B681B6842F00102A4
:104DAC001A6007E07B681B681A687B681B6842F016
:104DBC0001021A60002318461437BD4680BC7047A8
:104DCC00002C0140000400400008004080B584B075
:104DDC0000AF78607B681B68DB68FB607B681B68D6
:104DEC001B69BB60BB6803F00203002B20D0FB687F
:104DFC0003F00203002B1BD07B681B686FF00202D0
:104E0C001A617B6801221A777B681B689B6903F027
:104E1C000303002B03D0786800F098F905E078685C
:104E2C0000F08BF9786800F09AF97B6800221A7709
:104E3C00BB6803F00403002B20D0FB6803F00403D1
:104E4C00002B1BD07B681B686FF004021A617B6817
:104E5C0002221A777B681B689B6903F44073002B52
:104E6C0003D0786800F072F905E0786800F065F915
:104E7C00786800F074F97B6800221A77BB6803F03D
:104E8C000803002B20D0FB6803F00803002B1BD079
:104E9C007B681B686FF008021A617B6804221A7722
:104EAC007B681B68DB6903F00303002B03D0786875
:104EBC0000F04CF905E0786800F03FF9786800F0F4
:104ECC004EF97B6800221A77BB6803F01003002BA5
:104EDC0020D0FB6803F01003002B1BD07B681B68F1
:104EEC006FF010021A617B6808221A777B681B68C6
:104EFC00DB6903F44073002B03D0786800F026F9CB
:104F0C0005E0786800F019F9786800F028F97B68FA
:104F1C0000221A77BB6803F00103002B0CD0FB684E
:104F2C0003F00103002B07D07B681B686FF00102B4
:104F3C001A617868FCF73AF9BB6803F08003002B20
:104F4C000CD0FB6803F08003002B07D07B681B6838
:104F5C006FF080021A61786800F07FFABB6803F08A
:104F6C004003002B0CD0FB6803F04003002B07D050
:104F7C007B681B686FF040021A61786800F0F8F8E3
:104F8C00BB6803F02003002B0CD0FB6803F020035C
:104F9C00002B07D07B681B686FF020021A617868C1
:104FAC0000F052FA00BF1037BD4680BD80B584B00A
:104FBC0000AF786039600023FB737B6893F83C305A
:104FCC00012B01D10223B4E07B68012283F83C2041
:104FDC007B68022283F83D207B681B689B68BB6062
:104FEC00BB6823F07703BB60BB6823F47F43BB60D3
:104FFC007B681B68BA689A603B681B68B3F5005FF6
:10500C003ED0B3F5005F00F28780B3F5805F00F00F
:10501C008680B3F5805F7FD8702B1AD0702B7BD82D
:10502C00602B50D0602B77D8502B3CD0502B73D8A2
:10503C00402B58D0402B6FD8302B64D0302B6BD8F2
:10504C00202B60D0202B67D8002B5CD0102B5AD093
:10505C0062E07B6818683B6899683B685A683B68F3
:10506C00DB6800F074F97B681B689B68BB60BB68ED
:10507C0043F07703BB607B681B68BA689A604FE0AB
:10508C007B6818683B6899683B685A683B68DB68C2
:10509C0000F05DF97B681B689A687B681B6842F4BA
:1050AC0080429A603CE07B6818683B6859683B68B2
:1050BC00DB681A4600F0D4F87B681B685021184650
:1050CC0000F02BF92CE07B6818683B6859683B684A
:1050DC00DB681A4600F0F2F87B681B686021184602
:1050EC0000F01BF91CE07B6818683B6859683B684A
:1050FC00DB681A4600F0B4F87B681B684021184640
:10510C0000F00BF90CE07B681A683B681B681946C9
:10511C00104600F002F903E00123FB7300E000BF2E
:10512C007B68012283F83D207B68002283F83C20B9
:10513C00FB7B18461037BD4680BD80B483B000AFF2
:10514C00786000BF0C37BD4680BC704780B483B01C
:10515C0000AF786000BF0C37BD4680BC704780B490
:10516C0083B000AF786000BF0C37BD4680BC704781
:10517C0080B483B000AF786000BF0C37BD4680BCF4
:10518C007047000080B485B000AF786039607B68F0
:10519C001B68FB607B682F4A93420BD07B68B3F192
:1051AC00804F07D07B682C4A934203D07B682B4AF4
:1051BC00934208D1FB6823F07003FB603B685B688B
:1051CC00FA681343FB607B68224A93420BD07B68DE
:1051DC00B3F1804F07D07B681F4A934203D07B68A2
:1051EC001E4A934208D1FB6823F44073FB603B6872
:1051FC00DB68FA681343FB60FB6823F080023B68B2
:10520C005B691343FB607B68FA681A603B689A68B9
:10521C007B68DA623B681A687B689A627B680D4A25
:10522C00934203D13B681A697B681A637B6801223D
:10523C005A617B681B6903F00103002B05D07B6866
:10524C001B6923F001027B681A6100BF1437BD464D
:10525C0080BC7047002C0140000400400008004056
:10526C0080B487B000AFF860B9607A60FB681B6AE5
:10527C007B61FB681B6A23F00102FB681A62FB6806
:10528C009B693B613B6923F0F0033B617B681B012D
:10529C003A6913433B617B6923F00A037B617A69AA
:1052AC00BB6813437B61FB683A699A61FB687A6956
:1052BC001A6200BF1C37BD4680BC704780B487B0F3
:1052CC0000AFF860B9607A60FB681B6A7B61FB68B1
:1052DC001B6A23F01002FB681A62FB689B693B6136
:1052EC003B6923F470433B617B681B033A691343AE
:1052FC003B617B6923F0A0037B61BB681B017A696E
:10530C0013437B61FB683A699A61FB687A691A629C
:10531C0000BF1C37BD4680BC704780B485B000AF61
:10532C00786039607B689B68FB60FB6823F07003D6
:10533C00FB603A68FB68134343F00703FB607B6830
:10534C00FA689A6000BF1437BD4680BC704780B4C1
:10535C0087B000AFF860B9607A603B60FB689B680F
:10536C007B617B6923F47F437B613B681A027B681A
:10537C001A43BB6813437A6913437B61FB687A69F0
:10538C009A6000BF1C37BD4680BC704780B485B0A6
:10539C0000AF786039607B6893F83C30012B01D109
:1053AC00022346E07B68012283F83C207B680222C2
:1053BC0083F83D207B681B685B68FB607B681B681F
:1053CC009B68BB60FB6823F07003FB603B681B6849
:1053DC00FA681343FB607B681B68FA685A607B6849
:1053EC001B68164A93420ED07B681B68B3F1804F42
:1053FC0009D07B681B68124A934204D07B681B68F7
:10540C00104A93420CD1BB6823F08003BB603B680D
:10541C005B68BA681343BB607B681B68BA689A60A8
:10542C007B68012283F83D207B68002283F83C20B6
:10543C00002318461437BD4680BC7047002C014031
:10544C00000400400008004080B483B000AF7860D6
:10545C0000BF0C37BD4680BC704780B483B000AF32
:10546C00786000BF0C37BD4680BC704780B582B0F9
:10547C0000AF78607B68002B01D1012342E07B6890
:10548C0093F84130DBB2002B06D17B68002283F805
:10549C0040207868FCF76EF97B68242283F8412061
:1054AC007B681B68DA687B681B6822F40052DA6040
:1054BC00786800F071F97B681B681A697B681B6857
:1054CC0022F490421A617B681B685A697B681B68DE
:1054DC0022F02A025A617B681B68DA687B681B68B9
:1054EC0042F40052DA607B6800225A647B68202206
:1054FC0083F841207B68202283F842207B680022BD
:10550C005A63002318460837BD4680BD80B58AB063
:10551C0002AFF860B9603B601346FB8000237B61EF
:10552C00FB6893F84130DBB2202B75D1BB68002BA4
:10553C0002D0FB88002B01D101236EE0FB68002216
:10554C005A64FB68212283F84120FCF759FA7861F0
:10555C00FB68FA889A84FB68FA88DA84FB689B6893
:10556C00B3F5805F08D1FB681B69002B04D10023C5
:10557C00FB61BB68BB6103E0BB68FB610023BB61E3
:10558C002EE03B6800937B6900228021F86800F0D4
:10559C0048F80346002B05D0FB68202283F84120F5
:1055AC0003233AE0FB69002B0BD1BB691B881A461D
:1055BC00FB681B68C2F308025A60BB690233BB610B
:1055CC0007E0FB691A78FB681B685A60FB690133BA
:1055DC00FB61FB68DB8C9BB2013B9AB2FB68DA8403
:1055EC00FB68DB8C9BB2002BCBD13B6800937B69B7
:1055FC0000224021F86800F014F80346002B05D077
:10560C00FB68202283F84120032306E0FB6820225C
:10561C0083F84120002300E0022318462037BD46C2
:10562C0080BD80B586B000AFF860B9603B601346B2
:10563C00FB713BE03B6AB3F1FF3F37D0FCF7E0F97D
:10564C0002463B68D31A3A6A9A4202D33B6A002B51
:10565C0001D103233AE0FB681B68DB6803F0040309
:10566C00002B23D0BB68802B20D0BB68402B1DD0D7
:10567C00FB681B681B6803F00803082B16D100237A
:10568C007B61FB681B681B687B61FB681B685B6844
:10569C007B617B69F86800F01DF8FB6808225A648E
:1056AC00FB68002283F8402001230FE0FB681B6895
:1056BC001A68BB681340BA689A420CBF01230023D6
:1056CC00DBB21A46FB799A42B4D00023184618373D
:1056DC00BD4680BD80B495B000AF78607B681B6818
:1056EC000C337B637B6B53E8003F3B633B6B23F4D6
:1056FC009073FB647B681B680C33FA6C3A64FB6335
:10570C00F96B3A6C41E80023BB63BB6B002BE5D112
:10571C007B681B6814333B623B6A53E8003FFB61B8
:10572C00FB6923F00103BB647B681B681433BA6C00
:10573C00FA62BB62B96AFA6A41E800237B627B6A4F
:10574C00002BE5D17B681B6B012B19D17B681B6887
:10575C000C33FB60FB6853E8003FBB60BB6823F075
:10576C0010037B647B681B680C337A6CBA617B61B9
:10577C007969BA6941E800233B613B69002BE5D1AB
:10578C007B68202283F842207B6800221A6300BFCA
:10579C005437BD4680BC704780B584B000AF78608C
:1057AC007B681B681B6923F440517B68DA687B6853
:1057BC001B680A431A617B689A687B681B691A43E9
:1057CC007B685B691343BB607B681B68DB6823F4F5
:1057DC00B05323F00C037A681268B9680B43D3609A
:1057EC007B681B685B6923F440717B689A697B68F2
:1057FC001B680A435A617B681B682C4A934203D18D
:10580C00FFF710FAF86002E0FFF7F8F9F860FA68B1
:10581C0013469B0013449A001A447B685B689B00F8
:10582C00B2FBF3F3224AA2FB03235B091901FA68CA
:10583C0013469B0013449A001A447B685B689B00D8
:10584C00B2FBF3F21A4BA3FB02035B09642000FBCF
:10585C0003F3D31A1B013233154AA2FB03235B0952
:10586C0003F0F0031944FA6813469B0013449A00A2
:10587C001A447B685B689B00B2FBF3F20C4BA3FBF6
:10588C0002035B09642000FB03F3D31A1B013233C0
:10589C00074AA2FB03235B0903F00F027B681B681A
:1058AC000A449A6000BF1037BD4680BD00380140E5
:1058BC001F85EB51014B1868704700BFA4000020F6
:1058CC0070B500260C4D0D4C641BA410A64209D1DA
:1058DC0000F064FC00260A4D0A4C641BA410A6427E
:1058EC0005D170BD55F8043B98470136EEE755F8E5
:1058FC00043B98470136F2E7F8620008F8620008AA
:10590C00F8620008FC620008024B0146186800F0BF
:10591C0057B800BFA400002003460244934200D1B4
:10592C00704703F8011BF9E738B50546002943D049
:10593C0051F8043C0C1F002BB8BFE41800F0CAF857
:10594C001E4A1368104633B9636014602846BDE8DC
:10595C00384000F0C5B8A3420AD9216862189342B6
:10596C0001BF1A685B685218226063600460EDE73F
:10597C001A465B680BB1A342FAD911685018A042C1
:10598C000BD120680144501883421160DED1186895
:10599C005B68014411605360D8E702D90C232B607B
:1059AC00D4E7206821188B4201BF19685B6809187D
:1059BC00216063605460C9E738BD00BF5801002006
:1059CC00F8B5CD1C25F0030508350C2D38BF0C257A
:1059DC00002D064601DBA94203D90C2333600020BD
:1059EC00F8BD00F077F821490A6814469CB9204F9D
:1059FC003B6823B92146304600F03CF83860294614
:105A0C00304600F037F8431C23D10C23304633606A
:105A1C0000F066F8E3E723685B1B17D40B2B03D964
:105A2C0023601C44256004E06368A2420CBF0B6039
:105A3C005360304600F054F804F10B00231D20F0A5
:105A4C000700C21ACCD01B1AA350C9E722466468BF
:105A5C00CCE7C41C24F00304A042E3D0211A304646
:105A6C0000F008F80130DDD1CFE700BF580100206D
:105A7C005C01002038B50023054D044608462B6018
:105A8C00FBF704FF431C02D12B6803B1236038BD24
:105A9C00800200200EB46FF0004100B59CB01DAB2D
:105AAC0002900690079104910848094953F8042B79
:105ABC000591006802A9019300F074F80022029B82
:105ACC001A701CB05DF804EB03B07047A400002002
